:10000000E9C0000006C1000004C1000002C10000F8
:1000100000C10000FEC00000FCC00000FAC00000EB
:10002000F8C00000F6C00000F4C00000F2C00000FC
:10003000F0C00000EEC00000ECC00000EAC000000C
:10004000E8C00000E6C00000E4C00000E2C000001C
:10005000E0C00000DEC00000DCC00000DAC000002C
:10006000D8C00000D6C00000D4C00000D2C000003C
:10007000D0C00000CEC00000CCC00000CAC000004C
:10008000C8C00000C6C00000C4C00000C2C000005C
:10009000C0C00000BEC00000BCC00000BAC000006C
:1000A000B8C00000B6C00000B4C00000B2C000007C
:1000B000B0C00000AEC00000ACC00000AAC000008C
:1000C000A8C00000A6C00000A4C00000A2C000009C
:1000D000A0C000009EC000009CC000009AC00000AC
:1000E00098C000007F018701870187018101870196
:1000F00083018501870187018701870187018701C6
:1001000087018701870187018701870187018701AF
:10011000870187018701870187018701870187019F
:10012000870187018701870187018701870187018F
:10013000870187018701870187018701870187017F
:10014000870187018701870187018701870187016F
:10015000870187018701870187018701870187015F
:10016000870187017701870187018701790187016D
:100170007B017D0187018701870187018701870155
:10018000870187018701870187018701870187012F
:10019000870187018701870187018701870187011F
:1001A000870187016F01870187018701710187013D
:1001B0007301750187018701870187018701870125
:1001C000870187016901870187018701890187010B
:1001D0006B016D0111241FBECFEFD1E2DEBFCDBF99
:1001E00000E00CBF12E0A0E0B2E0E0EBFCE000E0D9
:1001F0000BBF02C007900D92A23CB107D9F722E0D5
:10020000A2ECB2E001C01D92A63EB207E1F7B9D060
:100210004DC5F6CE20E09FEE10C090930801E9EFA7
:10022000F0E03197F1F700C00000809106018F7077
:100230008F3029F4990F9F5F2F5F243070F3907FE8
:10024000890F089580EF8093070108958FE08093D0
:100250000801809106018F708F30C1F789EF90E01F
:100260000197F1F700C000008FE0809308018091B2
:1002700006018F708F3051F708958FE08093080149
:10028000809106018F708F30C1F389EF90E0019764
:10029000F1F700C000008FE0809308018091060113
:1002A0008F708F3051F30895D1DF89EF90E001977F
:1002B000F1F700C00000E1DFADDF90E0FC01E7579F
:1002C000F109E837F10518F58827EE58FF4F8F4FF1
:1002D000B7C18AE2089584E3089581E3089580E335
:1002E000089588E3089585E3089582E3089583E2FD
:1002F000089589E3089586E3089583E3089584E4E7
:10030000089583E4089582E4089581E408958AE7D6
:10031000089587E308959093C5008093C400E1ECAD
:10032000F0E0808188618083E2ECF0E080818E6083
:10033000808308959091C00095FFFCCF8093C60004
:1003400008958091C00085FFFCCF8091C60008957C
:10035000AC0120E030E011C0F999FECF32BD21BDE3
:10036000FA01E20FF31F908190BD9FB394609FBB91
:100370009FB392609FBB2F5F3F4F2617370760F3F5
:100380000895CF93DF93CDB7DEB7A5970FB6F89456
:10039000DEBF0FBECDBF40D155DF88E084B980E419
:1003A0008CBD8AB18F778AB987E690E0B4DFE0EE42
:1003B000F2E08EE092E09383828380E092E091838A
:1003C000808385E0EDEBF2E0DE01919601900D92E5
:1003D0008A95E1F765E070E0CE018196B9DF80E0B3
:1003E00090E010C0F999FECF92BD81BD2FB321607E
:1003F0002FBB20B5E1E0F0E0EC0FFD1FE80FF91F87
:10040000208301968032910568F34F9B12C081E0F2
:100410008093C30280E592E03ED16CE172E08BE212
:1004200092E01FD18BE292E09F938F9321D10F90A6
:100430000F9080E012C0082E000C990BFC01E55DC6
:10044000FD4F30813EBD0DB407FEFDCF3EB5FC0132
:10045000E653FD4F308381E0820F282F853058F31B
:100460008091C302882389F213C0082E000C990BD7
:10047000FC01E55DFD4F30813EBD0DB407FEFDCFB3
:100480003EB5FC01E653FD4F308381E0820F01C091
:1004900080E0282F853048F3E12CF12C45C004DFA3
:1004A0008093C9021F928F9381E792E09F938F936D
:1004B0000EED12E01F930F931ED1F80180819091F1
:1004C00032020F900F900F900F900F900F9089179E
:1004D00081F12091300282130BC01E141F0444F4DA
:1004E000F1E0EF1AF108F701EC53FD4F10820FC055
:1004F00034E0E316F1045CF4821749F0891739F00F
:10050000F701EC53FD4F80838FEFE81AF80A84EC73
:1005100092E09F938F9384E792E09F938F93A8D06C
:100520000F900F900F900F908091C202882309F4D2
:10053000B6CFE4ECF2E01482FF93EF9380E892E010
:100540009F938F9395D064EC72E0CE01019680D09A
:100550000F900F900F900F90892B51F187E992E047
:100560009AD066E272E08BE292E07BD08BE292E07E
:100570009F938F937DD00F900F9080E012C0082E34
:10058000000C990BFC01E55DFD4F30813EBD0DB4C3
:1005900007FEFDCF3EB5FC01E653FD4F308381E001
:1005A000820F282F853058F381E08093C2022DCF2F
:1005B0008BEA92E070D061E272E08BE292E051D07F
:1005C00080E012C0082E000C990BFC01E55DFD4F88
:1005D00030813EBD0DB407FEFDCF3EB5FC01E653B4
:1005E000FD4F308381E0820F282F853058F381E062
:1005F0008093C2020ACF9091C00095FFFCCF8093F8
:10060000C60080E090E008958091C0008823E4F760
:100610008091C60090E0089588E18093C10087E64C
:1006200090E09093C5008093C400E0EEF2E082E495
:1006300092E09383828384E392E0918380830895A0
:10064000EE0FFF1F881F8BBF0790F691E02D1994C6
:10065000FB01DC018D91019080190110D9F3990BF8
:100660000895FB01DC0101900D920020E1F708954F
:10067000CF93DF93CDB7DEB7AE014A5F5F4FFA018C
:1006800061917191AF018091E2029091E30261D09A
:10069000DF91CF9108950F931F93CF93DF93E09154
:1006A000E202F091E302238121FF1BC08C01D0E024
:1006B000C0E0F80181918F016091E2027091E30244
:1006C000DB011896ED91FC911997882331F019956B
:1006D000892B79F3DFEFCFEFECCF8AE01995892BE7
:1006E00019F08FEF9FEF02C08D2F9C2FDF91CF91DC
:1006F0001F910F9108950F931F93CF93DF93CDB761
:10070000DEB72E970FB6F894DEBF0FBECDBF0E89B1
:100710001F8986E08C831A8309838FEF9FE79E836E
:100720008D83AE01465E5F4F688D798DCE01019657
:1007300010D0EF81F885E00FF11F10822E960FB6D2
:10074000F894DEBF0FBECDBFDF91CF911F910F9107
:1007500008952F923F924F925F926F927F928F9265
:100760009F92AF92BF92CF92DF92EF92FF920F9340
:100770001F93CF93DF93CDB7DEB72B970FB6F894C7
:10078000DEBF0FBECDBF6C017B018A01FC01178269
:100790001682838181FFBFC1CE0101963C01F60123
:1007A0009381F70193FD859193FF81917F018823C8
:1007B00009F4ADC1853239F493FD859193FF8191A0
:1007C0007F01853221F4B60190E0D6D1E8CF912C9B
:1007D000212C312CFFE1F315D8F08B3279F038F46D
:1007E000803279F08332A1F4232D20611DC08D3237
:1007F00061F0803369F4232D216016C0832D82605F
:10080000382EE32DE4603E2E2AC0F32DF8601DC083
:1008100037FC2DC020ED280F2A3040F08E32B9F47D
:1008200036FC75C1232D2064322E19C036FE06C059
:100830008AE0989E200D1124922E11C0EAE02E9E8F
:10084000200D1124222EF32DF0623F2E08C08C368D
:1008500021F4832D8068382E02C0883641F4F701D8
:1008600093FD859193FF81917F018111B3CF982FE3
:100870009F7D9554933028F40C5F1F4F9FE399831D
:100880000DC0833631F0833771F0833509F055C0E0
:1008900020C0F801808189830E5F1F4F88248394D4
:1008A000912C530112C02801F2E04F0E511CF801A7
:1008B000A080B18036FE03C0692D70E002C06FEFEA
:1008C0007FEFC5014ED14C018201F32DFF773F2E02
:1008D00015C0280122E0420E511CF801A080B18011
:1008E00036FE03C0692D70E002C06FEF7FEFC501D7
:1008F0002DD14C01F32DF0683F2E820133FC19C03D
:10090000822D90E088169906A0F4B60180E290E06E
:1009100033D12A94F5CFF50137FC859137FE8191CB
:100920005F01B60190E028D121102A9421E0821ABB
:1009300091088114910479F7E1C0843611F0893669
:1009400039F5F80137FE07C060817181828193819A
:100950000C5F1F4F08C060817181072E000C880B4F
:10096000990B0E5F1F4FF32DFF763F2E97FF09C0A7
:1009700090958095709561957F4F8F4F9F4FF06850
:100980003F2E2AE030E0A30133D1882E861844C0E0
:10099000853731F4232D2F7EB22E2AE030E025C09A
:1009A000932D997FB92E8F36C1F018F4883579F0E0
:1009B000AEC0803719F0883721F0A9C0E92FE06177
:1009C000BE2EB4FE0DC0FB2DF460BF2E09C034FE58
:1009D0000AC0292F2660B22E06C028E030E005C0EC
:1009E00020E130E002C020E132E0F801B7FE07C0AC
:1009F00060817181828193810C5F1F4F06C060818D
:100A0000718180E090E00E5F1F4FA301F1D0882E2E
:100A10008618FB2DFF773F2E36FE0DC0232D2E7F2F
:100A2000A22E891458F434FE0BC032FC09C0832D69
:100A30008E7EA82E05C0B82CA32C03C0B82C01C0F4
:100A4000B92CA4FE0FC0FE01E80DF11D808180339A
:100A500021F49A2D997EA92E09C0A2FE06C0B39456
:100A6000B39404C08A2D867809F0B394A3FC10C017
:100A7000A0FE06C0B21480F4280C922C9B180DC066
:100A8000B21458F4B60180E290E076D0B394F8CF77
:100A9000B21418F42B1802C0982C212CA4FE0FC0FD
:100AA000B60180E390E068D0A2FE16C0A1FC03C0AE
:100AB00088E790E002C088E590E0B6010CC08A2D7E
:100AC000867851F0A1FE02C08BE201C080E2A7FC53
:100AD0008DE2B60190E050D0891430F4B60180E385
:100AE00090E04AD09A94F8CF8A94F301E80DF11D72
:100AF0008081B60190E040D08110F6CF222009F429
:100B00004ECEB60180E290E037D02A94F7CFF601BE
:100B10008681978102C08FEF9FEF2B960FB6F894D6
:100B2000DEBF0FBECDBFDF91CF911F910F91FF9020
:100B3000EF90DF90CF90BF90AF909F908F907F907D
:100B40006F905F904F903F902F900895FC0105901B
:100B5000615070400110D8F7809590958E0F9F1FBF
:100B60000895FC016150704001900110D8F7809504
:100B700090958E0F9F1F08950F931F93CF93DF9330
:100B8000FB01238121FD03C08FEF9FEF2CC022FFCB
:100B900016C046815781248135814217530744F49A
:100BA000A081B1819D012F5F3F4F318320838C93C2
:100BB000268137812F5F3F4F3783268314C08B01F7
:100BC000EC01FB010084F185E02D1995892BE1F6FC
:100BD000D80116968D919C911797019617969C9324
:100BE0008E931697CE01DF91CF911F910F910895AB
:100BF000FA01AA27283051F1203181F1E8946F934E
:100C00006E7F6E5F7F4F8F4F9F4FAF4FB1E03ED0F3
:100C1000B4E03CD0670F781F891F9A1FA11D680F91
:100C2000791F8A1F911DA11D6A0F711D811D911DC4
:100C3000A11D20D009F468943F912AE0269F112439
:100C40003019305D3193DEF6CF010895462F47709D
:100C5000405D4193B3E00FD0C9F7F6CF462F4F70F8
:100C6000405D4A3318F0495D31FD4052419302D056
:100C7000A9F7EACFB4E0A6959795879577956795FC
:100C8000BA95C9F700976105710508959B01AC01FC
:100C90000A2E06945795479537952795BA95C9F723
:100CA000620F731F841F951FA01D0895F894FFCF36
:100CB00000000001000000000000A1010000000091
:100CC0000002000000009A010000000032323200F1
:100CD000003333330000343434000030303000004F
:100CE0002A002300000000010000000000000403AF
:100CF00000000000000200000000FB0200000000F5
:100D00004445544543544544204D4F56454D454E6A
:100D1000542C20474956452050415353574F524475
:100D2000002563000A50617377643A2025730A0036
:100D30000A50617373776F726420656E74657265B3
:100D4000643A2025730A00496E636F72726563749A
:100D50002070617373776F72642E00436F727265D7
:100D600063742070617373776F72642E003636354A
:020D7000310050
:00000001FF
