S0110000756E6F4D61737465722E7372656355
S11300000C9434000C9451000C9451000C94510045
S11300100C9451000C9451000C9451000C94510018
S11300200C9451000C9451000C9451000C94510008
S11300300C9451000C9451000C9451000C945100F8
S11300400C9451000C9451000C9451000C945100E8
S11300500C9451000C9451000C9451000C945100D8
S11300600C9451000C94510011241FBECFEFD8E022
S1130070DEBFCDBF11E0A0E0B1E0E6EAFAE002C0E5
S113008005900D92AE33B107D9F721E0AEE3B1E0AC
S113009001C01D92A434B207E1F70E94B6010C948A
S11300A051050C94000085B1886085B9000085B1C4
S11300B0877F85B90895CF93C82F662321F085B132
S11300C0826085B903C085B18D7F85B985B18B7F89
S11300D085B98AB188608AB98AB180618AB98AB1DE
S11300E080628AB98AB180648AB98BB18F7B8BB9FB
S11300F08BB18F7D8BB98BB18F7E8BB98BB1877FA1
S11301008BB9CC231CF48BB180648BB9C6FF03C0BC
S11301108BB180628BB9C5FF03C08BB180618BB991
S1130120C4FF03C08BB188608BB90E9453008BB1AC
S11301308F7B8BB98BB18F7D8BB98BB18F7E8BB954
S11301408BB1877F8BB9C3FF03C08BB180648BB93C
S1130150C2FF03C08BB180628BB9C1FF03C08BB1F6
S113016080618BB9C0FF03C08BB188608BB90E94DA
S113017053008BB188608BB98BB180618BB98BB123
S113018080628BB98BB180648BB9CF910895882339
S113019021F085B1826085B903C085B18D7F85B9B1
S11301A085B1846085B98AB1877F8AB98AB18F7E27
S11301B08AB98AB18F7D8AB98AB18F7B8AB985B1B0
S11301C0886085B900004B9902C080E001C080E1DD
S11301D04C9980624D9980644E99806895B1977F5F
S11301E095B9000095B1986095B900004B9981606C
S11301F04C9982604D9984604E99886095B1977F3F
S113020095B9089580E00E94C7008823DCF300C0FC
S113021000C080E00E94C7000895CF93C82F0E94B9
S1130220020160E08C2F0E945B00CF910895611160
S113023004C080580E940D01089580540E940D014D
S1130240089581E00E940D010895CF93C82F0E9464
S11302500201CA3049F4803410F480E401C080E023
S113026080580E940D0104C061E08C2F0E945B0045
S1130270CF910895CF93DF93FC0103C00E94250121
S1130280FE01EF01219680818111F8CFDF91CF919A
S11302900895CF93C82F84B1826084B984B18460F7
S11302A084B984B1886084B98AB188608AB98AB112
S11302B080618AB98AB180628AB98AB180648AB954
S11302C08FE99FE00197F1F700C000008BB18061D6
S11302D08BB98BB188608BB90E94530081EE94E096
S11302E00197F1F700C000000E94530095E19A9530
S11302F0F1F700000E94530085E18A95F1F70000B0
S11303008BB1877F8BB90E94530095E19A95F1F7E1
S1130310000088E20E940D0188E00E940D010E9405
S1130320210186E00E940D018C2F0E940D01CF91C6
S113033008959093C5008093C400E1ECF0E08081BF
S113034088618083E2ECF0E080818E608083089590
S11303509091C00095FFFCCF8093C60008958091D2
S1130360C00085FFFCCF8091C6000895CF93DF9332
S1130370CDB7DEB7E8970FB6F894DEBF0FBECDBF9A
S113038084B18C6284B98CB580658CBD8CB5816078
S11303908CBD87E690E00E949901EEE3F1E08EE0E7
S11303A091E09383828380E091E09183808386E06F
S11303B0ECE1F1E0DE01119601900D928A95E1F7EE
S11303C0FE0137968EE0DF011D928A95E9F78CE0F5
S11303D00E9449014AE0BE01675D7F4F8FEF93E0C1
S11303E00E943E020E94210180E391E00E943A01B2
S11303F061E080E00E941701CE0189960E943A01D3
S113040085B18B7F85B980E021C0082E000C990B43
S1130410E1E0F0E0EC0FFD1FE80FF91F30813EBD75
S1130420BAE1BA95F1F700C00DB407FEFDCF3AE189
S11304303A95F1F700C001973EB5E5E1F0E0EC0F25
S1130440FD1FE80FF91F308381E0820F282F8431CC
S1130450E0F285B1846085B9CE0145969F938F9370
S11304600E9463028FEF99E6A8E181509040A0407A
S1130470E1F700C000000F900F90C2CFBB274A30B5
S113048031F4992322F4BDE2909581959F4F0C9409
S11304904A02BB27FB015527AA27880F991FAA1FC9
S11304A0A41710F0A41B83955051B9F7A05DAA338B
S11304B008F0A95DA193009779F7B111B193119256
S11304C0CB010C947004A0E0B0E0E9E6F2E00C94F7
S11304D02A05AE014B5F5F4FFA0161917191AF0143
S11304E080914001909141010E947902E2E00C94D4
S11304F04605ABE0B0E0EFE7F2E00C941A056C01BE
S11305007B018A01FC0117821682838181FFCCC1A1
S1130510CE0101963C01F6019381F70193FD85918B
S113052093FF81917F01882309F4BAC1853239F49C
S113053093FD859193FF81917F01853229F4B60162
S113054090E00E948004E7CF912C212C312CFFE114
S1130550F315D8F08B3279F038F4803279F08332A5
S1130560A1F4232D20611DC08D3261F0803369F424
S1130570232D216016C0832D8260382EE32DE46084
S11305803E2E2AC0F32DF8601DC037FC2DC020ED8F
S1130590280F2A3040F08E32B9F436FC81C1232D65
S11305A02064322E19C036FE06C08AE0989E200DC3
S11305B01124922E11C0EAE02E9E200D1124222E29
S11305C0F32DF0623F2E08C08C3621F4832D806811
S11305D0382E02C0883641F4F70193FD859193FFCC
S11305E081917F018111B3CF982F9F7D95549330D2
S11305F028F40C5F1F4F9FE399830DC0833631F0BD
S1130600833771F0833509F059C021C0F801808126
S113061089830E5F1F4F88248394912C530113C048
S11306202801F2E04F0E511CF801A080B18036FE83
S113063003C0692D70E002C06FEF7FEFC5010E9417
S113064065044C018201F32DFF773F2E16C028016B
S113065022E0420E511CF801A080B18036FE03C096
S1130660692D70E002C06FEF7FEFC5010E945A044C
S11306704C01F32DF0683F2E820133FC1BC0822D08
S113068090E088169906B0F4B60180E290E00E94EA
S113069080042A94F4CFF50137FC859137FE8191CB
S11306A05F01B60190E00E94800421102A9421E0A9
S11306B0821A91088114910471F7E8C0843611F00C
S11306C0893641F5F80137FE07C060817181828166
S11306D093810C5F1F4F08C060817181072E000C4D
S11306E0880B990B0E5F1F4FF32DFF763F2E97FF5C
S11306F009C090958095709561957F4F8F4F9F4F5E
S1130700F0683F2E2AE030E0A3010E94BC04882E4A
S1130710861845C0853731F4232D2F7EB22E2AE06A
S113072030E025C0932D997FB92E8F36C1F018F48F
S1130730883579F0B5C0803719F0883721F0B0C01A
S1130740E92FE061BE2EB4FE0DC0FB2DF460BF2E78
S113075009C034FE0AC0292F2660B22E06C028E044
S113076030E005C020E130E002C020E132E0F801D1
S1130770B7FE07C060817181828193810C5F1F4F36
S113078006C06081718180E090E00E5F1F4FA3017D
S11307900E94BC04882E8618FB2DFF773F2E36FE60
S11307A00DC0232D2E7FA22E891458F434FE0BC0C5
S11307B032FC09C0832D8E7EA82E05C0B82CA32C34
S11307C003C0B82C01C0B92CA4FE0FC0FE01E80D73
S11307D0F11D8081803321F49A2D997EA92E09C0C0
S11307E0A2FE06C0B394B39404C08A2D867809F09F
S11307F0B394A3FC11C0A0FE06C0B21488F4280C64
S1130800922C9B180EC0B21460F4B60180E290E002
S11308100E948004B394F7CFB21418F42B1802C0CA
S1130820982C212CA4FE10C0B60180E390E00E9415
S11308308004A2FE17C0A1FC03C088E790E002C0B8
S113084088E590E0B6010CC08A2D867859F0A1FEA7
S113085002C08BE201C080E2A7FC8DE2B60190E009
S11308600E948004891438F4B60180E390E00E9469
S113087080049A94F7CF8A94F301E80DF11D8081E6
S1130880B60190E00E9480048110F5CF222009F483
S113089042CEB60180E290E00E9480042A94F6CF12
S11308A0F6018681978102C08FEF9FEF2B96E2E1DC
S11308B00C943605FC010590615070400110D8F786
S11308C0809590958E0F9F1F0895FC016150704094
S11308D001900110D8F7809590958E0F9F1F089571
S11308E0DC01FC01672F71917723E1F7329704C093
S11308F07C916D9370836291AE17BF07C8F308951E
S11309000F931F93CF93DF93FB01238121FD03C03A
S11309108FEF9FEF2CC022FF16C0468157812481A0
S113092035814217530744F4A081B1819D012F5FA3
S11309303F4F318320838C93268137812F5F3F4F34
S11309403783268314C08B01EC01FB010084F185FD
S1130950E02D0995892BE1F6D80116968D919C918D
S11309601797019617969C938E931697CE01DF9155
S1130970CF911F910F910895FA01AA27283051F1C0
S1130980203181F1E8946F936E7F6E5F7F4F8F4FBC
S11309909F4FAF4FB1E03ED0B4E03CD0670F781F1B
S11309A0891F9A1FA11D680F791F8A1F911DA11D00
S11309B06A0F711D811D911DA11D20D009F4689439
S11309C03F912AE0269F11243019305D3193DEF6E1
S11309D0CF010895462F4770405D4193B3E00FD097
S11309E0C9F7F6CF462F4F70405D4A3318F0495D82
S11309F031FD4052419302D0A9F7EACFB4E0A69565
S1130A009795879577956795BA95C9F70097610586
S1130A10710508959B01AC010A2E069457954795DC
S1130A2037952795BA95C9F7620F731F841F951FD1
S1130A30A01D08952F923F924F925F926F927F92E2
S1130A408F929F92AF92BF92CF92DF92EF92FF92DA
S1130A500F931F93CF93DF93CDB7DEB7CA1BDB0B86
S1130A600FB6F894DEBF0FBECDBF09942A8839882B
S1130A7048885F846E847D848C849B84AA84B98432
S1130A80C884DF80EE80FD800C811B81AA81B9813E
S1130A90CE0FD11D0FB6F894DEBF0FBECDBFED0152
S1090AA00895F894FFCF55
S1130AA600000001000000000000AF01000000008B
S1130AB6000200000000A8010000000049444C4563
S1130AC60A00000000000000000000000000000012
S1110AD648656C6C6F20576F726C64210000D1
S9030000FC
