:100000000C9434000C9449000C9449000C94490061
:100010000C9449000C9449000C9449000C9449003C
:100020000C9449000C9449000C9449000C9449002C
:100030000C9449000C9449000C9449000C9449001C
:100040000C9449000C9449000C9449000C9449000C
:100050000C9449000C9449000C9449000C944900FC
:100060000C9449000C94490011241FBECFEFD8E036
:10007000DEBFCDBF11E0A0E0B1E0E4E0F3E002C0FC
:1000800005900D92AE30B107D9F70E9427010C946C
:1000900080010C9400002B9A00002B980895CF93B8
:1000A000C82F662311F0299A01C029982A98539ADB
:1000B000549A559A569A5E985D985C985B98CC23B2
:1000C0000CF45E9AC6FD5D9AC5FD5C9AC4FD5B9A10
:1000D0000E944B005E985D985C985B98C3FD5E9AA9
:1000E000C2FD5D9AC1FD5C9AC0FD5B9A0E944B0007
:1000F0005B9A5C9A5D9A5E9ACF910895882311F07D
:10010000299A01C029982A9A539854985598569834
:100110002B9A00004B9B02C080E101C080E04C990B
:1001200080624D9980644E9980682B9800002B9ACC
:1001300000004B9981604C9982604D9984604E9982
:1001400088602B98089580E00E947E008823DCF36D
:1001500000C000C080E00E947E000895CF93C82FA9
:100160000E94A30060E08C2F0E944F00CF91089561
:10017000611104C080580E94AE00089580540E940E
:10018000AE00089581E00E94AE000895CF93C82F7D
:100190000E94A300CA3049F4803410F080E001C00E
:1001A00080E480580E94AE0004C061E08C2F0E9461
:1001B0004F00CF910895CF93DF93EC012196FC017E
:1001C0008081882329F00E94C60089918111FBCF8C
:1001D000DF91CF910895CF93C82F219A229A239A25
:1001E000539A549A559A569A8FE99FE00197F1F7DE
:1001F00000C000005C9A5B9A0E944B0081EE94E084
:100200000197F1F700C000000E944B0095E19A951C
:10021000F1F700000E944B0085E18A95F1F700009C
:100220005B980E944B0095E19A95F1F7000088E2F7
:100230000E94AE0088E00E94AE000E94C20086E0EC
:100240000E94AE008C2F0E94AE00CF910895CF93F4
:10025000DF93CDB7DEB760970FB6F894DEBF0FBE61
:10026000CDBF8CE00E94EB004AE0BE016F5F7F4F84
:100270008FEF93E00E944B010E94C20080E091E06A
:100280000E94DB0061E080E00E94B800CE01019690
:100290000E94DB00FFCFBB274A3031F4992322F4C0
:1002A000BDE2909581959F4F0C945701BB27FB01B0
:1002B0005527AA27880F991FAA1FA41710F0A41B5F
:1002C00083955051B9F7A05DAA3308F0A95DA193B9
:1002D000009779F7B111B1931192CB010C94700191
:1002E000DC01FC01672F71917723E1F7329704C09D
:1002F0007C916D9370836291AE17BF07C8F3089528
:04030000F894FFCF9F
:0E03040048656C6C6F20576F726C64210000AE
:00000001FF
