:100000000C9434000C9451000C9451000C94510049
:100010000C9451000C9451000C9451000C946F01FD
:100020000C9451000C9451000C9451000C949401C8
:100030000C9451000C9451000C9451000C945100FC
:100040000C9451000C9451000C9451000C945100EC
:100050000C9451000C9451000C9451000C945100DC
:100060000C9451000C94510011241FBECFEFD8E026
:10007000DEBFCDBF11E0A0E0B1E0E0E5F7E002C0F7
:1000800005900D92A235B107D9F721E0A2E5B1E0C4
:1000900001C01D92A937B207E1F70E9463020C94D8
:1000A000A6030C9400002D9A00002D980895CF937C
:1000B000C82F662311F02B9A01C02B982C98539AC5
:1000C000549A559A569A5E985D985C985B98CC23A2
:1000D0000CF45E9AC6FD5D9AC5FD5C9AC4FD5B9A00
:1000E0000E9453005E985D985C985B98C3FD5E9A91
:1000F000C2FD5D9AC1FD5C9AC0FD5B9A0E945300EF
:100100005B9A5C9A5D9A5E9ACF910895882311F06C
:100110002B9A01C02B982C9A53985498559856981E
:100120002D9A00004B9B02C080E101C080E04C99F9
:1001300080624D9980644E9980682D9800002D9AB8
:1001400000004B9981604C9982604D9984604E9972
:1001500088602D98089580E00E9486008823DCF353
:1001600000C000C080E00E9486000895CF93C82F91
:100170000E94AB0060E08C2F0E945700CF91089541
:10018000611104C080580E94B600089580540E94F6
:10019000B600089581E00E94B6000895CF93C82F5D
:1001A0000E94AB00CA3049F4803410F080E001C0F6
:1001B00080E480580E94B60004C061E08C2F0E9449
:1001C0005700CF910895CF93DF93EC012196FC0166
:1001D0008081882329F00E94CE0089918111FBCF74
:1001E000DF91CF910895CF93C82F239A249A259A0F
:1001F000539A549A559A569A8FE99FE00197F1F7CE
:1002000000C000005C9A5B9A0E94530081EE94E06B
:100210000197F1F700C000000E94530095E19A9504
:10022000F1F700000E94530085E18A95F1F7000084
:100230005B980E94530095E19A95F1F7000088E2DF
:100240000E94B60088E00E94B6000E94CA0086E0C4
:100250000E94B6008C2F0E94B600CF91089582E0D4
:100260008093B00095E09093B100809370008CE78C
:100270008093B300789408952FB7F8946091590152
:1002800070915A0180915B0190915C012FBF08959C
:10029000E4E6F0E080818F7B808385E08093B1008D
:1002A000E0E7F0E08081826080830895E0E7F0E09D
:1002B00080818D7F80831092B100E4E6F0E0808140
:1002C0008064808308958FB7F8941092590110923A
:1002D0005A0110925B0110925C018FBF08951F922A
:1002E0000F920FB60F9211248F939F93AF93BF93EA
:1002F0008091590190915A01A0915B01B0915C01EC
:100300000196A11DB11D8093590190935A01A093AC
:100310005B01B0935C01BF91AF919F918F910F9062
:100320000FBE0F901F9018951F920F920FB60F924D
:10033000112410928500109284000F900FBE0F9030
:100340001F9018958C01EB01219A7894E0E8F0E079
:100350001082A1E8B0E01C921092850010928400F7
:100360008081806480838081816080838C918061C2
:100370008C93EFE6F0E0808182608083C801880F73
:10038000991F869F3001879F700C969F700C1124D7
:100390009301072C000C440B550B60E074E284EFD2
:1003A00090E00E94300330938900209388008827D2
:1003B0009927801B910B880F991F8C9F60018D9F3F
:1003C000D00C9C9FD00C112424E1209FC001219FC0
:1003D000900D11248C9F10018D9F300C9C9F300C30
:1003E00011240F2EF1E84F2E512CF02D0F2E812CC1
:1003F000F4E29F2EF4EFAF2EB12CF02D0F2EF8E883
:10040000EF2EF12CF02DF201808182608083830138
:10041000C9E0D0E0FFEF29EF80E0F15020408040BC
:10042000E1F700C000009801012E000C440B550BB1
:10043000C501B4010E943003F70131832083219765
:10044000060D171D209731F78101CAE0D0E0FFEFBC
:1004500029EF80E0F15020408040E1F700C000002B
:100460009801012E000C440B550BC501B4010E94EC
:100470003003F7013183208321970C0D1D1D209738
:1004800031F7C1CF0E94CA008AE091E00E94E300E8
:1004900061E080E00E94C00084E191E00E94E300FE
:1004A0002FEF87EA91E6215080409040E1F700C0AD
:1004B0000000609100017091010180910201909112
:1004C00003010E94A201FF920F931F93CF93DF932A
:1004D000CDB7DEB760970FB6F894DEBF0FBECDBFC5
:1004E0008CE00E94F3000E942F010E9456014AE016
:1004F000BE016F5F7F4F8FEF93E00E94710360E05A
:1005000080E00E94C0000E94CA00FF24F3940FE51F
:1005100011E0809108019091090181309105E9F77E
:100520000E94480180915201811106C083E291E04E
:100530000E94E300F09252010E943C01209153017D
:1005400030915401AB01BC01421B530B610971098D
:100550008091050190910601A0E0B0E0481759078D
:100560006A077B07B0F10E943C01709354016093CD
:100570005301809107018150809307018091070109
:10058000893041F46F2D8F2D0E94C0008CE291E0E4
:100590000E94E3006F2D80E00E94C000809107015F
:1005A0004AE061E671E090E00E9471030E94E3007E
:1005B0008091070181110DC00E9463010E945601C4
:1005C00010925401109253018EE1809307010E9412
:1005D000420281E00E32180741F4809104018B3011
:1005E00098F08150809304010FC0809104018D30F8
:1005F00058F460E00E94C000C8010E94E3008091AE
:1006000004018F5F809304018091570190915801FC
:10061000019749F40E94CA0080E391E00E94E30040
:10062000109252010FC0809155019091560101978F
:1006300009F06FCF0E94CA0082E491E00E94E300BB
:100640001092520180E090E060960FB6F894DEBF01
:100650000FBECDBFDF91CF911F910F91FF900895F5
:10066000052E97FB1EF400940E94470357FD07D008
:100670000E944F0307FC03D04EF40C94470350959F
:100680004095309521953F4F4F4F5F4F089590957E
:100690008095709561957F4F8F4F9F4F0895A1E290
:1006A0001A2EAA1BBB1BFD010DC0AA1FBB1FEE1FEC
:1006B000FF1FA217B307E407F50720F0A21BB30B37
:1006C000E40BF50B661F771F881F991F1A9469F7B3
:1006D00060957095809590959B01AC01BD01CF010F
:1006E0000895BB274A3031F4992322F4BDE2909556
:1006F00081959F4F0C947D03BB27FB015527AA27AB
:10070000880F991FAA1FA41710F0A41B839550519E
:10071000B9F7A05DAA3308F0A95DA193009779F716
:10072000B111B1931192CB010C949603DC01FC0141
:10073000672F71917723E1F7329704C07C916D9315
:1007400070836291AE17BF07C8F30895F894FFCF86
:10075000010052030AE80314010054696D65732017
:1007600075702100506F6C69636520636F6D696EF1
:1007700067210050617373776F72643A20002A001A
:1007800050617373776F726420636F727265637404
:10079000210057726F6E672070617373776F726498
:0207A000210036
:00000001FF
