S015000041726475696E6F5F6C63645F632E73726563E9
S11300000C9434000C9451000C9451000C94510045
S11300100C9451000C9451000C9451000C946F01F9
S11300200C9451000C9451000C9451000C94510008
S11300300C9451000C9451000C9451000C945100F8
S11300400C9451000C9451000C9451000C945100E8
S11300500C9451000C9451000C9451000C945100D8
S11300600C9451000C94510011241FBECFEFD8E022
S1130070DEBFCDBF11E0A0E0B1E0EAE5F5E002C0EB
S113008005900D92AE34B107D9F721E0AEE4B1E0AA
S113009001C01D92A537B207E1F70E94AC010C9490
S11300A0AB020C9400002B9A00002B980895CF9378
S11300B0C82F662311F0299A01C029982A98539AC7
S11300C0549A559A569A5E985D985C985B98CC239E
S11300D00CF45E9AC6FD5D9AC5FD5C9AC4FD5B9AFC
S11300E00E9453005E985D985C985B98C3FD5E9A8D
S11300F0C2FD5D9AC1FD5C9AC0FD5B9A0E945300EB
S11301005B9A5C9A5D9A5E9ACF910895882311F068
S1130110299A01C029982A9A539854985598569820
S11301202B9A00004B9B02C080E101C080E04C99F7
S113013080624D9980644E9980682B9800002B9AB8
S113014000004B9981604C9982604D9984604E996E
S113015088602B98089580E00E9486008823DCF351
S113016000C000C080E00E9486000895CF93C82F8D
S11301700E94AB0060E08C2F0E945700CF9108953D
S1130180611104C080580E94B600089580540E94F2
S1130190B600089581E00E94B6000895CF93C82F59
S11301A00E94AB00CA3049F4803410F080E001C0F2
S11301B080E480580E94B60004C061E08C2F0E9445
S11301C05700CF910895CF93DF93EC012196FC0162
S11301D08081882329F00E94CE0089918111FBCF70
S11301E0DF91CF910895CF93C82F219A229A239A11
S11301F0539A549A559A569A8FE99FE00197F1F7CA
S113020000C000005C9A5B9A0E94530081EE94E067
S11302100197F1F700C000000E94530095E19A9500
S1130220F1F700000E94530085E18A95F1F7000080
S11302305B980E94530095E19A95F1F7000088E2DB
S11302400E94B60088E00E94B6000E94CA0086E0C0
S11302500E94B6008C2F0E94B600CF91089582E0D0
S11302608093B00095E09093B100809370008CE788
S11302708093B300789408952FB7F8946091550152
S11302807091560180915701909158012FBF0895A4
S1130290E4E6F0E080818F7B808385E08093B10089
S11302A0E0E7F0E08081826080830895E0E7F0E099
S11302B080818D7F80831092B100E4E6F0E080813C
S11302C08064808308958FB7F8941092550110923A
S11302D0560110925701109258018FBF08951F9232
S11302E00F920FB60F9211248F939F93AF93BF93E6
S11302F08091550190915601A0915701B0915801F8
S11303000196A11DB11D8093550190935601A093B0
S11303105701B0935801BF91AF919F918F910F9066
S11303200FBE0F901F9018950E94CA0086E091E0BE
S11303300E94E30061E080E00E94C00080E191E05F
S11303400E94E3002FEF87EA91E62150804090401D
S1130350E1F700C000000895FF920F931F93CF931D
S1130360DF93CDB7DEB760970FB6F894DEBF0FBE4C
S1130370CDBF8CE00E94F3000E942F010E94560121
S11303804AE0BE016F5F7F4F8FEF93E00E947602D9
S113039060E080E00E94C0000E94CA00FF24F39441
S11303A00BE511E0809104019091050181309105E4
S11303B0E9F70E94480180914E01811106C08FE146
S11303C091E00E94E300F0924E010E943C012091D2
S11303D04F0130915001AB01BC01421B530B610929
S11303E071098091010190910201A0E0B0E04817E9
S11303F059076A077B07B8F10E943C0170935001CA
S113040060934F0180910301815080930301809197
S11304100301893041F46F2D8F2D0E94C00088E2C2
S113042091E00E94E3006F2D80E00E94C000809163
S113043003014AE06DE571E090E00E9476020E94BB
S1130440E3008091030181110EC00E9463010E94A8
S113045056011092500110924F018EE180930301D6
S11304600E94940135C081E00A32180741F480915A
S113047000018B3098F08150809300010FC080916F
S113048000018D3058F460E00E94C000C8010E9451
S1130490E300809100018F5F8093000180915301FC
S11304A090915401019739F40E94CA008CE291E0C2
S11304B00E94E3000DC08091510190915201019777
S11304C009F070CF0E94CA008EE391E00E94E3001D
S11304D080E090E060960FB6F894DEBF0FBECDBF0B
S11304E0DF91CF911F910F91FF900895BB274A3060
S11304F031F4992322F4BDE2909581959F4F0C9499
S11305008202BB27FB015527AA27880F991FAA1F20
S1130510A41710F0A41B83955051B9F7A05DAA331A
S113052008F0A95DA193009779F7B111B1931192E5
S1130530CB010C949B02DC01FC01672F71917723A2
S1130540E1F7329704C07C916D9370836291AE178A
S10D0550BF07C8F30895F894FFCF25
S113055A0AE80314010054696D657320757021005B
S113056A506F6C69636520636F6D696E6721005013
S113057A617373776F72643A20002A00506173734F
S113058A776F726420636F727265637421005772A5
S111059A6F6E672070617373776F7264210057
S9030000FC
