:100000000C9434000C9451000C9451000C94510049
:100010000C9451000C9451000C9451000C9451001C
:100020000C9451000C9451000C9451000C9451000C
:100030000C9451000C9451000C9451000C945100FC
:100040000C9451000C9451000C9451000C945100EC
:100050000C9451000C9451000C9451000C945100DC
:100060000C9451000C94510011241FBECFEFD8E026
:10007000DEBFCDBF11E0A0E0B1E0EEEEF3E002C0E4
:1000800005900D92AE34B107D9F721E0AEE4B1E0AE
:1000900001C01D92A235B207E1F70E9447010C94FE
:1000A000F5010C9400002B9A00002B980895CF9333
:1000B000C82F662311F0299A01C029982A98539ACB
:1000C000549A559A569A5E985D985C985B98CC23A2
:1000D0000CF45E9AC6FD5D9AC5FD5C9AC4FD5B9A00
:1000E0000E9453005E985D985C985B98C3FD5E9A91
:1000F000C2FD5D9AC1FD5C9AC0FD5B9A0E945300EF
:100100005B9A5C9A5D9A5E9ACF910895882311F06C
:10011000299A01C029982A9A539854985598569824
:100120002B9A00004B9B02C080E101C080E04C99FB
:1001300080624D9980644E9980682B9800002B9ABC
:1001400000004B9981604C9982604D9984604E9972
:1001500088602B98089580E00E9486008823DCF355
:1001600000C000C080E00E9486000895CF93C82F91
:100170000E94AB0060E08C2F0E945700CF91089541
:10018000611104C080580E94B600089580540E94F6
:10019000B600089581E00E94B6000895CF93C82F5D
:1001A0000E94AB00CA3049F4803410F080E001C0F6
:1001B00080E480580E94B60004C061E08C2F0E9449
:1001C0005700CF910895CF93DF93EC012196FC0166
:1001D0008081882329F00E94CE0089918111FBCF74
:1001E000DF91CF910895CF93C82F219A229A239A15
:1001F000539A549A559A569A8FE99FE00197F1F7CE
:1002000000C000005C9A5B9A0E94530081EE94E06B
:100210000197F1F700C000000E94530095E19A9504
:10022000F1F700000E94530085E18A95F1F7000084
:100230005B980E94530095E19A95F1F7000088E2DF
:100240000E94B60088E00E94B6000E94CA0086E0C4
:100250000E94B6008C2F0E94B600CF9108950E9494
:10026000CA0083E091E00E94E30061E080E00E9428
:10027000C0008DE091E00E94E3002FEF87EA91E655
:10028000215080409040E1F700C000000895CF93D6
:10029000DF93CDB7DEB760970FB6F894DEBF0FBE21
:1002A000CDBF8CE00E94F3004AE0BE016F5F7F4F3C
:1002B0008FEF93E00E94C0010E94CA00809101016B
:1002C0009091020181309105E9F78CE191E00E9463
:1002D000E3002FEF87EA91E6215080409040E1F75C
:1002E00000C0000060E08AE00E94C00087E291E068
:1002F0000E94E3002FEF87EA91E621508040904072
:10030000E1F700C0000060E08BE00E94C00089E2DD
:1003100091E00E94E3002FEF87EA91E621508040B0
:100320009040E1F700C00000809100018E3118F08C
:100330000E942F011AC080915001909151010197A4
:1003400039F40E94CA008BE291E00E94E3000DC0E4
:1003500080914E0190914F01019709F0AFCF0E941B
:10036000CA008DE391E00E94E30080E090E0609697
:100370000FB6F894DEBF0FBECDBFDF91CF910895C9
:10038000BB274A3031F4992322F4BDE29095819540
:100390009F4F0C94CC01BB27FB015527AA27880F40
:1003A000991FAA1FA41710F0A41B83955051B9F7E9
:1003B000A05DAA3308F0A95DA193009779F7B11168
:1003C000B1931192CB010C94E501DC01FC01672F84
:1003D00071917723E1F7329704C07C916D9370831C
:0E03E0006291AE17BF07C8F30895F894FFCFDF
:1003EE001E010054696D65732075702100506F6C8D
:1003FE0069636520636F6D696E6721005061737369
:10040E00776F72643A200031003200506173737757
:10041E006F726420636F7272656374210057726F1E
:0E042E006E672070617373776F726421000037
:00000001FF
