S0140000736C617665535049546573742E7372656369
S11300000C9434000C9451000C9451000C94510045
S11300100C9451000C9451000C9451000C94510018
S11300200C9451000C9451000C9451000C94510008
S11300300C9451000C9451000C9451000C945100F8
S11300400C9451000C9451000C9451000C945100E8
S11300500C9451000C9451000C9451000C945100D8
S11300600C9451000C94510011241FBECFEFD8E022
S1130070DEBFCDBF11E0A0E0B1E0E4EAF1E002C0F0
S113008005900D92A833B107D9F721E0A8E3B1E0B8
S113009001C01D92AF33B207E1F70E9470000C94C7
S11300A0D0000C9400009093C5008093C400E1EC50
S11300B0F0E0808188618083E2ECF0E080818E60F2
S11300C0808308959091C00095FFFCCF8093C60073
S11300D008958091C00085FFFCCF8091C6000895EB
S11300E0CF93DF9300D01F92CDB7DEB780E184B900
S11300F080E48CBD87E690E00E945300E9E3F1E0E0
S11301008EE091E09383828380E091E09183808309
S113011081E390E39A83898380E38B830E94BC000C
S1130120809138018823E1F311C0E1E0F0E0EC0FA5
S1130130FD1FE80FF11D87FDFA9580818EBD0DB47A
S113014007FEFDCF8EB581E0890F01C080E0982FB6
S1130150833058F3E5CF9091C00095FFFCCF809396
S1130160C60080E090E008958091C0008823E4F701
S11301708091C60090E0089588E18093C10087E6ED
S113018090E09093C5008093C400E9E3F1E08AE233
S113019091E0938382838CE191E09183808308953D
S10701A0F894FFCFFD
S11301A400000001000000000000690000000000DD
S11301B400020000000062000000000000000001D2
S11301C4000000000000B400000000000002000071
S10B01D40000AB000000000074
S9030000FC
