:100000000C9434000C9451000C9451000C94510049
:100010000C9451000C9451000C9451000C9451001C
:100020000C9451000C9451000C9451000C94370125
:100030000C9451000C9451000C9451000C945100FC
:100040000C9451000C9451000C9451000C945100EC
:100050000C9451000C9451000C9451000C945100DC
:100060000C9451000C94510011241FBECFEFD8E026
:10007000DEBFCDBF11E0A0E0B1E0E6E4FCE002C0ED
:1000800005900D92AC39B107D9F721E0ACE9B1E0A8
:1000900001C01D92AA3CB207E1F70E9437020C94FE
:1000A00021060C9400009093C5008093C400E1ECFD
:1000B000F0E0808188618083E2ECF0E080818E60F6
:1000C000808308959091C00095FFFCCF8093C60077
:1000D00008958091C00085FFFCCF8091C6000895EF
:1000E0009BB19F70282F207F922B9BB99BB19B7F48
:1000F0009BB99BB198609BB935E03A95F1F7000048
:100100009BB1977F9BB9EFE1F3E03197F1F700C026
:1001100000002BB1F0E18F9FC0011124922F9F703E
:10012000892B8BB98BB188608BB935E03A95F1F7A3
:1001300000008BB1877F8BB98FE39FE10197F1F7C7
:1001400000C0000008959BB19F70282F207F922B44
:100150009BB99BB194609BB99BB198609BB935E00A
:100160003A95F1F700009BB1977F9BB9EFE1F3E07F
:100170003197F1F700C000002BB1F0E18F9FC00173
:100180001124922F9F70892B8BB98BB188608BB90A
:1001900035E03A95F1F700008BB1877F8BB98FE39B
:1001A0009FE10197F1F700C0000008952FEF89EF5C
:1001B00090E0215080409040E1F700C0000082E0D4
:1001C0000E94700088E20E9470008CE00E94700023
:1001D00086E00E94700081E00E9470008FE39FE142
:1001E0000197F1F700C000000895CF93DF93EC0171
:1001F00003C00E94A300219688818111FACFDF916C
:10020000CF910895CF93DF93EC01611104C080E892
:100210000E94700007C080EC0E94700003C00E9422
:10022000A300219688818111FACFDF91CF910895A3
:1002300081E00E9470008FE39FE10197F1F700C019
:1002400000000895880F991F869F9001879F300DA9
:10025000969F300D1124032E000C440B550B60E0CB
:1002600074E284EF90E00E94D202C90108951F92C7
:100270000F920FB60F9211241092850010928400F5
:100280000F900FBE0F901F9018958C017B0184B1C9
:10029000826084B97894E0E8F0E01082A1E8B0E0F0
:1002A0001C9210928500109284008081806480836B
:1002B0008081816080838C9180618C93EFE6F0E097
:1002C000808182608083C8010E942201909389000E
:1002D00080938800E1E8F0E0808182608083C1E063
:1002E000D0E018C02FEF89EF90E02150804090407F
:1002F000E1F700C00000B701C09FC001C19F900D91
:10030000D09F900D11240E94220190938900809328
:1003100088002196CA30D1052CF3CAE0D0E018C07D
:100320002FEF89EF90E0215080409040E1F700C02E
:100330000000B701C09FC001C19F900DD09F900DDC
:1003400011240E94220190938900809388002197B4
:100350001C161D062CF3BECFEF92FF920F931F9336
:10036000CF93DF93CDB7DEB760970FB6F894DEBFBB
:100370000FBECDBF0E94D60060E083E491E00E94F2
:1003800002010EE110E060C01F930F938DE491E035
:100390009F938F931F9280E18F93CE0101967C01F2
:1003A0009F938F930E94290361E0C7010E9402017D
:1003B0009FEF23ED80E3915020408040E1F700C0A3
:1003C00000000150110985B18B7F85B90FB6F894F3
:1003D000DEBF0FBECDBF80E012C0082E000C990B0F
:1003E000FC01E456FE4F30813EBD0DB407FEFDCF4B
:1003F0003EB5FC01E055FE4F308381E0820F282F8F
:10040000843158F385B1846085B98091B00183331C
:1004100041F40E9418018CE591E00E94F50081E012
:1004200019C0843389F40E9418018AE691E00E9481
:10043000F5009FEF2BE782E9915020408040E1F7E3
:1004400000C0000080E006C011230CF09DCF0E9488
:10045000180180E060960FB6F894DEBF0FBECDBFE6
:10046000DF91CF911F910F91FF90EF9008958AB186
:100470008C6F8AB90E94BE020E94D6000E941801A9
:100480008AE791E00E94F50084B18C6284B98CB552
:1004900080658CBD8CB581608CBD87E690E00E9444
:1004A0005300E4ECF1E08EE091E09383828380E0FE
:1004B00091E09183808385B18B7F85B980E012C004
:1004C000082E000C990BFC01E456FE4F30813EBD16
:1004D0000DB407FEFDCF3EB5FC01E055FE4F308365
:1004E00081E0820F282F843158F385B1846085B96B
:1004F000C0EBD1E0DF93CF930E94130388810F906C
:100500000F908233C1F6CE019F93CF930E941303C5
:100510000E9418010E94AC01C82F0E9418010F9080
:100520000F90C11114C060E08CE391E00E940201C1
:1005300061E086E891E00E94020160911C017091E7
:100540001D0180911E0190911F010E94450160E0F4
:100550008EE891E00E940201AECF9091C00095FF1D
:10056000FCCF8093C60080E090E008958091C000A9
:100570008823E4F78091C60090E0089588E1809395
:10058000C10087E690E09093C5008093C400E4EC3E
:10059000F1E08EE291E09383828380E291E09183A7
:1005A00080830895052E97FB1EF400940E94E902B3
:1005B00057FD07D00E94F10207FC03D04EF40C94C3
:1005C000E90250954095309521953F4F4F4F5F4F31
:1005D000089590958095709561957F4F8F4F9F4FAF
:1005E0000895A1E21A2EAA1BBB1BFD010DC0AA1F74
:1005F000BB1FEE1FFF1FA217B307E407F50720F08C
:10060000A21BB30BE40BF50B661F771F881F991F06
:100610001A9469F760957095809590959B01AC014F
:10062000BD01CF010895A0E0B0E0E9E1F3E00C9452
:10063000FA05AE014B5F5F4FFA0161917191AF0115
:100640008091C6019091C7010E945903E2E00C9489
:100650001606AEE0B0E0EFE2F3E00C94F8050D8989
:100660001E898F89988D26E02C831A83098397FF32
:1006700002C080E090E801979E838D83AE01455EC5
:100680005F4F698D7A8DCE0101960E9459034D818D
:100690005E8157FD0AC02F813885421753070CF43D
:1006A0009A01F801E20FF31F10822E96E4E00C94F9
:1006B0001406ABE0B0E0EFE5F3E00C94EA056C0162
:1006C0007B018A01FC0117821682838181FFCCC1E4
:1006D000CE0101963C01F6019381F70193FD8591CE
:1006E00093FF81917F01882309F4BAC1853239F4DF
:1006F00093FD859193FF81917F01853229F4B601A5
:1007000090E00E945005E7CF912C212C312CFFE185
:10071000F315D8F08B3279F038F4803279F08332E7
:10072000A1F4232D20611DC08D3261F0803369F466
:10073000232D216016C0832D8260382EE32DE460C6
:100740003E2E2AC0F32DF8601DC037FC2DC020EDD1
:10075000280F2A3040F08E32B9F436FC81C1232DA7
:100760002064322E19C036FE06C08AE0989E200D05
:100770001124922E11C0EAE02E9E200D1124222E6B
:10078000F32DF0623F2E08C08C3621F4832D806853
:10079000382E02C0883641F4F70193FD859193FF0E
:1007A00081917F018111B3CF982F9F7D9554933014
:1007B00028F40C5F1F4F9FE399830DC0833631F0FF
:1007C000833771F0833509F059C021C0F801808169
:1007D00089830E5F1F4F88248394912C530113C08B
:1007E0002801F2E04F0E511CF801A080B18036FEC6
:1007F00003C0692D70E002C06FEF7FEFC5010E945A
:1008000045054C018201F32DFF773F2E16C02801CC
:1008100022E0420E511CF801A080B18036FE03C0D8
:10082000692D70E002C06FEF7FEFC5010E943A05AD
:100830004C01F32DF0683F2E820133FC1BC0822D4A
:1008400090E088169906B0F4B60180E290E00E942C
:1008500050052A94F4CFF50137FC859137FE81913C
:100860005F01B60190E00E94500521102A9421E01A
:10087000821A91088114910471F7E8C0843611F04E
:10088000893641F5F80137FE07C0608171818281A8
:1008900093810C5F1F4F08C060817181072E000C8F
:1008A000880B990B0E5F1F4FF32DFF763F2E97FF9E
:1008B00009C090958095709561957F4F8F4F9F4FA0
:1008C000F0683F2E2AE030E0A3010E948C05882EBC
:1008D000861845C0853731F4232D2F7EB22E2AE0AD
:1008E00030E025C0932D997FB92E8F36C1F018F4D2
:1008F000883579F0B5C0803719F0883721F0B0C05D
:10090000E92FE061BE2EB4FE0DC0FB2DF460BF2EBA
:1009100009C034FE0AC0292F2660B22E06C028E086
:1009200030E005C020E130E002C020E132E0F80113
:10093000B7FE07C060817181828193810C5F1F4F78
:1009400006C06081718180E090E00E5F1F4FA301BF
:100950000E948C05882E8618FB2DFF773F2E36FED1
:100960000DC0232D2E7FA22E891458F434FE0BC007
:1009700032FC09C0832D8E7EA82E05C0B82CA32C76
:1009800003C0B82C01C0B92CA4FE0FC0FE01E80DB5
:10099000F11D8081803321F49A2D997EA92E09C002
:1009A000A2FE06C0B394B39404C08A2D867809F0E1
:1009B000B394A3FC11C0A0FE06C0B21488F4280CA6
:1009C000922C9B180EC0B21460F4B60180E290E045
:1009D0000E945005B394F7CFB21418F42B1802C03C
:1009E000982C212CA4FE10C0B60180E390E00E9458
:1009F0005005A2FE17C0A1FC03C088E790E002C02A
:100A000088E590E0B6010CC08A2D867859F0A1FEE9
:100A100002C08BE201C080E2A7FC8DE2B60190E04B
:100A20000E945005891438F4B60180E390E00E94DA
:100A300050059A94F7CF8A94F301E80DF11D808157
:100A4000B60190E00E9450058110F5CF222009F4F4
:100A500042CEB60180E290E00E9450052A94F6CF83
:100A6000F6018681978102C08FEF9FEF2B96E2E11E
:100A70000C940606FC010590615070400110D8F7F7
:100A8000809590958E0F9F1F0895FC0161507040D6
:100A900001900110D8F7809590958E0F9F1F0895B3
:100AA0000F931F93CF93DF93FB01238121FD03C09D
:100AB0008FEF9FEF2CC022FF16C046815781248103
:100AC00035814217530744F4A081B1819D012F5F06
:100AD0003F4F318320838C93268137812F5F3F4F97
:100AE0003783268314C08B01EC01FB010084F18560
:100AF000E02D0995892BE1F6D80116968D919C91F0
:100B00001797019617969C938E931697CE01DF91B7
:100B1000CF911F910F910895FA01AA27283051F122
:100B2000203181F1E8946F936E7F6E5F7F4F8F4F1E
:100B30009F4FAF4FB1E03ED0B4E03CD0670F781F7D
:100B4000891F9A1FA11D680F791F8A1F911DA11D62
:100B50006A0F711D811D911DA11D20D009F468949B
:100B60003F912AE0269F11243019305D3193DEF643
:100B7000CF010895462F4770405D4193B3E00FD0F9
:100B8000C9F7F6CF462F4F70405D4A3318F0495DE4
:100B900031FD4052419302D0A9F7EACFB4E0A695C7
:100BA0009795879577956795BA95C9F700976105E9
:100BB000710508959B01AC010A2E0694579547953F
:100BC00037952795BA95C9F7620F731F841F951F34
:100BD000A01D08952F923F924F925F926F927F9245
:100BE0008F929F92AF92BF92CF92DF92EF92FF923D
:100BF0000F931F93CF93DF93CDB7DEB7CA1BDB0BE9
:100C00000FB6F894DEBF0FBECDBF09942A8839888D
:100C100048885F846E847D848C849B84AA84B98494
:100C2000C884DF80EE80FD800C811B81AA81B981A0
:100C3000CE0FD11D0FB6F894DEBF0FBECDBFED01B4
:060C40000895F894FFCFB7
:100C46000000000100000000000069000000000034
:100C560000020000000062000000000001005203D4
:100C660000000001000000000000B60200000000C5
:100C7600000200000000AD0200000000414C455299
:100C86005421004749564520504153530054696D3D
:100C9600653A20253032642073656300436F7272B3
:100CA60065637420706173732100496E636F72729D
:100CB600656374207061737321005343414E4E493E
:100CC6004E472E2E2E00504F4C4943452100436F70
:0C0CD6007272656374207061737300001B
:00000001FF
